:100000000C9434000C943E000C943E000C943E0082
:100010000C943E000C943E000C943E000C943E0068
:100020000C943E000C943E000C943E000C943E0058
:100030000C943E000C943E000C943E000C943E0048
:100040000C943E000C943E000C943E000C943E0038
:100050000C943E000C943E000C943E000C943E0028
:100060000C943E000C943E0011241FBECFEFD8E04C
:10007000DEBFCDBF0E9474000C9479000C94000088
:10008000529A53985B9A08958BB194E089278BB963
:100090002FEF84E39CE0215080409040E1F700C0C6
:1000A000000008954B9910C02FEF80E792E0215097
:1000B00080409040E1F700C0000089B183FB8827B1
:1000C00080F991E08927089580E008955A9808956D
:1000D0000E9440000E945200882319F00E944400B0
:1000E000F9CF0E946600F6CF0E94680090E080E0A1
:0600F0000895F894FFCF13
:00000001FF
