:100000000C94B1000C94C6000C94C6000C94C6006D
:100010000C94C6000C94C6000C94C6000C94C60048
:100020000C94C6000C94C6000C94C6000C94C60038
:100030000C94C6000C94C6000C94C6000C94C60028
:100040000C94C6000C94C6000C94C6000C94C60018
:100050000C94C6000C94C8000C94C6000C94C60006
:100060000C94C6000C94C60000407A10F35A00A00D
:10007000724E18090010A5D4E80000E87648170071
:1000800000E40B54020000CA9A3B000000E1F505B1
:10009000000080969800000040420F000000A086FB
:1000A00001000000102700000000E803000000002D
:1000B0006400000000000A000000000001000000D1
:1000C00000002C76D888DC674F0823DFC1DFAE59EB
:1000D000E1B1B796E5E3E453C63AE651997696E87E
:1000E000E6C28426EB898C9B62ED407C6FFCEFBC02
:1000F0009C9F40F2BAA56FA5F490055A2AF75C932D
:100100006B6CF9676DC11BFCE0E40D47FEF520E662
:10011000B500D0ED902E0300943577050080841E45
:10012000080000204E0A000000C80C333333330FA0
:10013000986E12831141EF8D2114893BE65516CF3D
:10014000FEE6DB18D1844B381BF77C1D901DA4BB49
:10015000E424203284725E228100C9F124ECA1E5FE
:100160003D2711241FBECFEFD8E0DEBFCDBF11E089
:10017000A0E0B1E0E2E8FBE002C005900D92AC31F6
:10018000B107D9F70E948A010C94BF050C940000B6
:100190001F920F920FB60F921124CF92DF92EF921F
:1001A000FF920F931F932F933F934F935F936F9300
:1001B0007F938F939F93AF93BF93EF93FF93CF93CF
:1001C000DF93CDB7DEB76097DEBFCDBF609178001B
:1001D0007091790061157105A1F190E080E00E94B5
:1001E0000F0220E030E040EA50E40E94A20220E04A
:1001F00030EC4FE754E40E949D016B017C018E01BD
:100200000F5F1F4F22E046E00E94330320E030E002
:1002100040E250E4C701B6010E949D021816ACF5F9
:100220005B9A80E091E00E947E018FE091E00E9465
:100230007E01CE0101960E947E0189E191E00E943B
:100240007E0180917A00806480937A0060960FB678
:10025000F894DEBF0FBECDBFDF91CF91FF91EF913C
:10026000BF91AF919F918F917F916F915F914F91CE
:100270003F912F911F910F91FF90EF90DF90CF90C2
:100280000F900FBE0F901F9018955B9887E091E03C
:10029000CACF80E480937C0086E880937A0008953A
:1002A00090917C00907F8F70982B90937C00809130
:1002B0007A00806480937A0080917A0086FDFCCF7A
:1002C000809178009091790008959093C500809373
:1002D000C40088E18093C10086E08093C200089545
:1002E0009091C00095FFFCCF8093C6000895809147
:1002F000C00087FFFCCF8091C6000895CF93DF93A5
:10030000EC018991811103C0DF91CF9108950E9482
:100310007001F7CF539A0E94490187E690E00E944E
:10032000650180917A00886080937A00789480914A
:100330007A00806480937A00FFCF0E94B1010C9410
:1003400063020E945C0258F00E94550240F029F4BA
:100350005F3F29F00C944C0251110C9497020C94BD
:1003600052020E94740268F39923B1F3552391F36A
:10037000951B550BBB27AA2762177307840738F014
:100380009F5F5F4F220F331F441FAA1FA9F335D071
:100390000E2E3AF0E0E832D091505040E695001C25
:1003A000CAF72BD0FE2F29D0660F771F881FBB1FDF
:1003B000261737074807AB07B0E809F0BB0B802DBD
:1003C000BF01FF2793585F4F3AF09E3F510578F0E9
:1003D0000C944C020C9497025F3FE4F3983ED4F3E4
:1003E000869577956795B795F7959F5FC9F7880FBD
:1003F000911D9695879597F90895E1E0660F771F0F
:10040000881FBB1F621773078407BA0720F0621B9F
:10041000730B840BBA0BEE1F88F7E0950895E894F0
:1004200009C097FB3EF490958095709561957F4F3C
:100430008F4F9F4F9923A9F0F92F96E9BB279395EA
:10044000F695879577956795B795F111F8CFFAF4FA
:10045000BB0F11F460FF1BC06F5F7F4F8F4F9F4F2B
:1004600016C0882311F096E911C0772321F09EE889
:10047000872F762F05C0662371F096E8862F70E0EF
:1004800060E02AF09A95660F771F881FDAF7880FC9
:100490009695879597F9089597F99F6780E870E09A
:1004A00060E008959FEF80EC089500240A941616EA
:1004B000170618060906089500240A941216130652
:1004C000140605060895092E0394000C11F48823E0
:1004D00052F0BB0F40F4BF2B11F460FF04C06F5FFC
:1004E0007F4F8F4F9F4F089557FD9058440F551FD2
:1004F00059F05F3F71F04795880F97FB991F61F0A6
:100500009F3F79F087950895121613061406551F1C
:10051000F2CF4695F1DF08C0161617061806991F88
:10052000F1CF86957105610508940895E894BB277D
:1005300066277727CB0197F908950E940F0308F4E7
:100540008FEF08950E94B5020C9463020E94550239
:1005500038F00E945C0220F0952311F00C944C02BC
:100560000C94520211240C9497020E94740270F3AE
:10057000959FC1F3950F50E0551F629FF001729F48
:10058000BB27F00DB11D639FAA27F00DB11DAA1F57
:10059000649F6627B00DA11D661F829F2227B00DA4
:1005A000A11D621F739FB00DA11D621F839FA00D2F
:1005B000611D221F749F3327A00D611D231F849F7F
:1005C000600D211D822F762F6A2F11249F575040D6
:1005D0009AF0F1F088234AF0EE0FFF1FBB1F661F51
:1005E000771F881F91505040A9F79E3F510580F01A
:1005F0000C944C020C9497025F3FE4F3983ED4F3C2
:10060000869577956795B795F795E7959F5FC1F7BD
:10061000FE2B880F911D9695879597F90895990F50
:100620000008550FAA0BE0E8FEEF16161706E807BC
:10063000F907C0F012161306E407F50798F0621BDD
:10064000730B840B950B39F40A2661F0232B242BB2
:10065000252B21F408950A2609F4A140A6958FEFD1
:10066000811D811D0895EF920F931F93CF93DF9308
:10067000E80134E047FD34E1042E000C550B57FF30
:1006800003C0519541955109E32E022F242FAE014D
:100690000E945103CE01DF91CF911F910F91EF90F6
:1006A0000895A9E0B0E0E7E5F3E00C948E056A0157
:1006B000F22EB02E102FFBE3AF2EA01608F41BE392
:1006C0001F5F012F27E0AE014F5F5F4F0E94B00414
:1006D000BC018981982F9970913009F43FC09BE249
:1006E000E1FC04C09E2D9170E0FC3AC05E2D50717B
:1006F000E82FE87083FF46C084E0911101C083E0D9
:10070000EF2DE81B8F1508F0E0E0D6018E2F20E2D8
:10071000552351F1992329F0D6019C93C6010196E6
:100720006C0196012D5F3F4FE2FE24C08EE4D6019E
:100730008C9391E411969C93119712968C93D90106
:100740008E2F90E281111BC0E20FF32FF11D10825A
:100750008EEF9FEF2996ECE00C94AA059DE2C6CFA0
:1007600090E2C4CF2D9381508111FCCFCE0ED11CCD
:10077000E0E0D0CF8EE6D6018C9391E6DBCF9D935F
:100780008150E0CF482F447082FF3DC084E091113A
:1007900001C083E08F1510F4EF2DE81BD6018E2FDA
:1007A00020E2552309F1992329F0D6019C93C60133
:1007B00001966C0196012D5F3F4FE2FE1BC089E45C
:1007C000D6018C938EE411968C93119786E4129641
:1007D0008C93D9018E2F90E2882309F4B5CF9D9395
:1007E0008150FACF2D9381508111FCCFCE0ED11CB8
:1007F000E0E0D9CF89E6D6018C938EE611968C93F2
:10080000119786E6E4CF9B0177FF02C030E020E03D
:10081000A1E0B0E0911102C0B0E0A0E0F901319692
:10082000AE0FBF1F8B2C912CBB2009F461C054016B
:10083000EFEFAE1ABE0AAA0DBB1DFA161B0619F081
:1008400014F04F2D4A1B511188C0E3FC59C07601AA
:10085000A42FB0E2A1114FC0C40ED11C992309F4FA
:100860005BC040E0D6011196F60190836D015523DF
:1008700009F448C0012F060F9A81582F507184FF48
:1008800003C0913309F4015010160CF047C0093031
:1008900008F008E0EEE2FE2E5B01A01AB108850127
:1008A0009194819491082F3F320729F4D601FC924C
:1008B000F60131966F016217730794F1021713075F
:1008C0007CF5DB01A21BB30BAA24A394B12CAC0EC4
:1008D000BD1EAA0DBB1D11968C9121503109D60168
:1008E000119628153905F4F0F60180836D01DBCFF0
:1008F000B12CA12CA0CFF701B1937F01A150AACFB9
:100900009111B0CFD601942F50E302C05D93915066
:100910009111FCCFC40ED11C40E0ACCF01E0BACFA6
:1009200080E3DBCF6217730731F4963388F4953395
:1009300011F4552369F0F6018083FD01842F90E2C4
:10094000811108C0A40FB11D1C9290E080E002CF7D
:1009500081E3F1CF91938150F3CF911183CF8ACF6F
:10096000283008F027E03327DA01990F311D87FD81
:10097000916000966105710539F432602E5F3D93F8
:1009800030E32A95E1F708959F3F30F080387105F4
:10099000610509F03C5F3C5F3D93913008F0806851
:1009A000911DDF93CF931F930F93FF92EF92192F17
:1009B000987F9695E92F96959695E90FFF27EE5328
:1009C000FF4F99273327EE24FF24A701E701059065
:1009D0000894079428F4360FE71EF81E491F511D8E
:1009E000660F771F881F991F0694A1F7059007943B
:1009F00028F4E70EF81E491F561FC11D770F881FE8
:100A0000991F661F0694A1F70590079428F4F80E25
:100A1000491F561FC71FD11D880F991F661F771FBB
:100A20000694A1F70590079420F4490F561FC71F9D
:100A3000D81F990F661F771F881F0694A9F7849106
:100A40001095177041F0D695C79557954795F7942F
:100A5000E7941A95C1F7E8E6F0E0689415901591CF
:100A600035916591959105907FE27395E118F10AB2
:100A7000430B560BC90BD009C0F7E10CF11E431F05
:100A8000561FC91FD01D7EF4703311F48A95E6CF2E
:100A9000E894015030F0080F0AF40027021708F418
:100AA000202F2395022F7A3328F079E37D932A951E
:100AB000E9F710C07D932A9589F606949795679576
:100AC000379517951794E118F10A430B560BC90B8C
:100AD000D00998F023957E9173957A3308F070E3EE
:100AE0007C932013B8F77E9170617D9330F08395ED
:100AF00071E37D9370E32A95E1F71124EF90FF9065
:100B00000F911F91CF91DF91992787FD90950895BF
:100B10002F923F924F925F926F927F928F929F920D
:100B2000AF92BF92CF92DF92EF92FF920F931F93FB
:100B3000CF93DF93CDB7DEB7CA1BDB0B0FB6F894AC
:100B4000DEBF0FBECDBF09942A88398848885F84EC
:100B50006E847D848C849B84AA84B984C884DF805D
:100B6000EE80FD800C811B81AA81B981CE0FD11D41
:100B70000FB6F894DEBF0FBECDBFED010895F89417
:020B8000FFCFA5
:100B82004C4544204F4E004C4544204F46460009F8
:0C0B920020566F6C74203D20000D0A00FE
:00000001FF
